:060000000A128A110C280F
:10000800FE00030EF1000A08F2000A128A111428F1
:100018000A128A110F28F30183010A128A114D2846
:100028000B1C172818282A288312031306181D28C2
:100038001E2822280130F0007008F3070B108618DC
:100048002628272829280130F3020B1072088A0075
:10005800710E8300FE0E7E0E0900831603178801B9
:1000680089018316031385018312031385018316FF
:100078000313061486148113151495148B178B1506
:10008800161496140B100F088F3960388F000F1450
:1000980008000A128A1131200A128A117308831281
:0C00A8000313850052280A128A110C284C
:08400000FF3FFF3FFF3FFF3FC0
:04400E00D420FF3F7C
:00000001FF
