:060000000A128A110C280F
:10000800FE00030EF1000A08F2000A128A1199296B
:100018000A128A110F2883132A30FD000230FE00CD
:100028002730FF00203084000A128A1118220A1291
:100038008A11B701B801F701F801F90183010A1221
:100048008A115929790883120313AF002F08FA007F
:1000580064307A02031C3128322848286430F300BF
:100068000030F4007A08AF00B0012F08F50030081E
:10007800F6000A128A1195200A128A11730883124F
:100088000313B1003108B7006430F3000030F40006
:100098007A08AF00B0012F08F5003008F6000A1200
:1000A8008A11FE200A128A11730883120313B10001
:1000B8003108FA000A307A02031C632864287A2877
:1000C8000A30F3000030F4007A08AF00B0012F08BE
:1000D800F5003008F6000A128A1195200A128A11D2
:1000E800730883120313B1003108B8000A30F30013
:1000F8000030F4007A08AF00B0012F08F50030088E
:10010800F6000A128A11FE200A128A117308831255
:100118000313B1003108FA007A08AF002F08F7007E
:10012800080083120313AC01F41F9B289C28A32802
:10013800F309F409F30A0319F40AAC01AC0AF61F2F
:10014800A628A728B028F509F609F50A0319F60A1A
:100158000130AA002A08AC06AD01AE017308740488
:100168000319B728B828EF28AB01AB0AC628013015
:100178000310F30DF40DFF3E031DBC280130AA0047
:100188002A08AB07F41FC928CA28BB280130031066
:10019800AD0DAE0DFF3E031DCB2874087602031D7E
:1001A800D72873087502031CDA28DB28E2287308AD
:1001B800F5027408031CF603F6022D14013003102F
:1001C800F40CF30CFF3E031DE3280130AB02031DC2
:1001D800EE28EF28CA282C080319F328F428F92850
:1001E800AD09AE09AD0A0319AE0A2E08F4002D08B0
:1001F800F300080083120313AC01F61F0429052934
:100208000C29F509F609F50A0319F60AAC01AC0A36
:10021800F41F0F2910291529F309F409F30A031902
:10022800F40A7308740403191A291B294A29AB0113
:10023800AB0A292901300310F30DF40DFF3E031D0D
:100248001F290130AA002A08AB07F41F2C292D29E1
:100258001E2974087602031D332973087502031CCE
:10026800362937293D297308F5027408031CF6035B
:10027800F60201300310F40CF30CFF3E031D3E2977
:100288000130AB02031D49294A292D292C080319DD
:100298004E294F295429F509F609F50A0319F60AD2
:1002A8007608F4007508F30008000A128A11CB21B9
:1002B8000A128A1179088312031385000A128A1117
:1002C800FB210A128A110A128A1126200A128A119F
:1002D8007E2988015E2988013608870008145E296E
:1002E80088013508870088145E298801340887004A
:1002F80008155E29780883120313B200B301330886
:10030800003A031988295E293208003A03196D2931
:10031800013A03196F29033A03197429013A031999
:1003280079295E290A128A110C280B1C9C299D29FF
:10033800AF29831203130618A229A329A72901307C
:10034800F0007008F9070B108618AB29AC29AE2904
:100358000130F9020B100B1DB229B329C42904304E
:1003680078020318B829B929BE290130F0007008AD
:10037800F807BF29F801F9308312031381000B1124
:1003880072088A00710E8300FE0E7E0E0900831625
:100398000317880189018316031385018312031348
:1003A80085018316031387018312031387018316BC
:1003B8000313880183120313880183160313061499
:1003C80086148113151495148B178B158B16161418
:1003D80096140B100B110F088F3950388F000F141B
:1003E8008112011281110111811401140800831274
:1003F80003133708203E840083130008F3007308B2
:10040800B6003808203E84000008F3007308B500E1
:100418007708203E84000008F3007308B400080041
:100428007E088A007F0882000A128A1114220A12A2
:100438008A118000840A04087D0603190034FF0A23
:100448000319FE0A182A3F3406345B344F346634E5
:0A0458006D347D3407347F346F34B7
:08400000FF3FFF3FFF3FFF3FC0
:04400E00D420FF3F7C
:00000001FF
